S0120000464E445F427574746F6E2E737265635F
S113000045C0000061C000009EC000005CC000004C
S11300105AC0000058C0000056C0000054C0000080
S113002052C0000050C000004EC000004CC0000090
S11300304AC0000048C0000046C0000044C00000A0
S113004042C0000040C000003EC000003CC00000B0
S11300503AC0000038C0000036C0000034C00000C0
S113006032C0000030C000002EC000002CC00000D0
S11300702AC0000028C0000026C0000024C00000E0
S113008022C0000020C000001EC0000011241FBEBA
S1130090CFEFD0E1DEBFCDBF11E0A0E0B1E0EAEFE9
S11300A0F1E000E00BBF02C007900D92A431B1074C
S11300B0D9F721E0A4E1B1E001C01D92A631B20755
S11300C0E1F782D098C09CCF1F920F920FB60F9287
S11300D011240BB60F922F938F939F93EF93FF935B
S11300E080911401909115010196909315018093CC
S11300F0140180911401909115010A9721F4109232
S1130100150110921401E0911401F0911501EE0F04
S1130110FF1FE050FF4F8081809362002FEF81EE3C
S113012094E0215080409040E1F700C00000FF912E
S1130130EF919F918F912F910F900BBE0F900FBE57
S11301400F901F9018951F920F920FB60F921124C3
S11301500BB60F922F938F939F93EF93FF938091FE
S11301601401909115010197909315018093140146
S11301708091140190911501019631F489E090E089
S11301809093150180931401E0911401F0911501ED
S1130190EE0FFF1FE050FF4F8081809362008FEFCE
S11301A091EE24E0815090402040E1F700C000002F
S11301B0FF91EF919F918F912F910F900BBE0F9014
S11301C00FBE0F901F9018958FEF8093610081BB35
S11301D082BBEAE6F0E081E0808382E0808389B735
S11301E0816089BF89B7826089BF7894809100015A
S10D01F080936200FFCFF894FFCF64
S11301FAC000F900A400B000990092008200F8003F
S107020A80009000DC
S9030000FC
