S0140000464E445F427574746F6E5F322E73726563CC
S113000045C0000061C000007EC000005CC000006C
S11300105AC0000058C0000056C0000054C0000080
S113002052C0000050C000004EC000004CC0000090
S11300304AC0000048C0000046C0000044C00000A0
S113004042C0000040C000003EC000003CC00000B0
S11300503AC0000038C0000036C0000034C00000C0
S113006032C0000030C000002EC000002CC00000D0
S11300702AC0000028C0000026C0000024C00000E0
S113008022C0000020C000001EC0000011241FBEBA
S1130090CFEFD0E1DEBFCDBF11E0A0E0B1E0E0EFF3
S11300A0F1E000E00BBF02C007900D92A431B1074C
S11300B0D9F721E0A4E1B1E001C01D92A631B20755
S11300C0E1F740D093C09CCF1F920F920FB60F92CE
S11300D011242F938F939F9381E090E090931501C7
S11300E0809314012FEF81EE94E0215080409040E2
S11300F0E1F700C000009F918F912F910F900FBEE8
S11301000F901F9018951F920F920FB60F92112403
S11301102F938F939F9382E090E0909315018093A7
S113012014012FEF81EE94E0215080409040E1F7DC
S113013000C000009F918F912F910F900FBE0F90E0
S11301401F9018958FEF8093610081BB82BBEAE614
S1130150F0E081E0808382E0808389B7816089BF99
S113016089B7826089BF78941092150110921401A6
S1130170809100018093620040E051E0A2E6B0E08B
S113018024E131E08091140190911501019791F4DB
S1130190E0E0F1E0808132968C936FEF89E698E19C
S11301A0615080409040E1F700C00000E217F3077F
S11301B089F717C08091140190911501029789F471
S11301C0E4E1F1E0329780818C936FEF89E698E166
S11301D0615080409040E1F700C000004E175F0777
S11301E089F71092150110921401CCCFF894FFCF27
S11301F0C000F900A400B000990092008200F80049
S107020080009000E6
S9030000FC
