S0210000436F6D7061726541677265656D656E74496E746572727570742E73726563D7
S113000045C0000053C0000051C000004FC00000B4
S11300104DC000004BC0000049C0000047C00000B4
S113002045C0000043C0000041C000003FC00000C4
S11300303EC000003BC0000039C0000037C00000D3
S113004035C0000033C0000031C000002FC00000E4
S11300502DC000002BC0000029C0000027C00000F4
S113006025C0000023C0000021C000001FC0000004
S11300701DC000001BC0000019C0000017C0000014
S113008015C0000013C0000011C0000011241FBEE1
S1130090CFEFD0E1DEBFCDBF21E0A0E0B1E001C0F1
S11300A01D92A230B207E1F72AD038C0A9CF1F921F
S11300B00F920FB60F9211242F933F938F939F9318
S11300C0809100019091010121E030E0009711F04E
S11300D020E030E03093010120930001892B19F4D2
S11300E08FEF88BB01C018BA1DBC1CBC9F918F91B7
S11300F03F912F910F900FBE0F901F9018958FEF87
S113010087BB18BA8FEF9FE79BBD8ABD8EB584600D
S11301108EBD87B7806187BF7894FFCFF894FFCFF7
S9030000FC
