:1000000045C0000061C000007BC000005CC0000073
:100010005AC0000058C0000056C0000054C0000084
:1000200052C0000050C000004EC000004CC0000094
:100030004AC0000048C0000046C0000044C00000A4
:1000400042C0000040C000003EC000003CC00000B4
:100050003AC0000038C0000036C0000034C00000C4
:1000600032C0000030C000002EC000002CC00000D4
:100070002AC0000028C0000026C0000024C00000E4
:1000800022C0000020C000001EC0000011241FBEBE
:10009000CFEFD0E1DEBFCDBF11E0A0E0B1E0EEEDEB
:1000A000F1E000E00BBF02C007900D92A431B10750
:1000B000D9F721E0A4E1B1E001C01D92A531B2075A
:1000C000E1F73AD08AC09CCF1F920F920FB60F92E1
:1000D00011242F938F939F9381E0809314012FEF2E
:1000E00081EE94E0215080409040E1F700C0000094
:1000F0009F918F912F910F900FBE0F901F90189589
:100100001F920F920FB60F9211242F938F939F93EC
:1001100082E0809314012FEF81EE94E02150804023
:100120009040E1F700C000009F918F912F910F90B8
:100130000FBE0F901F9018958FEF87BB80936100C3
:1001400011BA82BBEAE6F0E0808181608083808121
:10015000808389B7816089BF89B7826089BF7894BD
:10016000C4E1D1E0A2E6B0E061E070E0809114016A
:100170008130D1F480E090E048B39B01082E02C0AA
:10018000220F331F0A94E2F7242B28BB2FEF39E606
:1001900048E1215030404040E1F700C000000196A6
:1001A0008830910549F715C080911401823089F497
:1001B000E0E0F1E0808132968C938FEF99E628E1C0
:1001C000815090402040E1F700C00000EC17FD078F
:0E01D00089F71092140118BAC9CFF894FFCF26
:1001DE00C000F900A400B000990092008200F8005F
:0401EE0080009000FD
:00000001FF
